:1000000012C02CC02BC02AC029C028C027C026C0BF
:1000100025C024C023C022C021C020C01FC01EC0D4
:100020001DC01CC01BC011241FBECFE5D4E0DEBF25
:10003000CDBF11E0A0E6B0E0E8E3F9E102C0059031
:100040000D92A434B107D9F722E0A4E4B1E001C0D5
:100050001D92A434B207E1F774D76CCCD1CF4F9284
:100060005F926F927F928F929F92AF92BF92CF9248
:10007000DF92EF92FF920F931F93CF93DF9321E0D4
:1000800047E551E060ED8EEE76D4809157018535DD
:1000900009F0C7C122E047E551E06AEA8EEE6BD471
:1000A00007E511E0F801808190E0982F8827C8E5E6
:1000B000D1E02881820F911D9093A7018093A60122
:1000C00022E0A8016CEA8EEE56D4F801808190E01F
:1000D000982F88272881820F911D90936501809326
:1000E000640122E0A8016EEA8EEE45D4F801808119
:1000F00090E0982F88272881820F911D90939F016F
:1001000080939E0122E0A80160EB8EEE34D4F801CA
:10011000808190E0982F88272881820F911D9093ED
:100120009D0180939C0122E0A80162EB8EEE23D416
:10013000F801808190E0982F88272881820F911DF7
:10014000909377018093760122E0A80164EB8EEE14
:1001500012D4F801808190E0982F88272881820F9F
:10016000911D90937D0180937C0122E0A80166EBB4
:100170008EEE01D4F801808190E0982F88272881A5
:10018000820F911D909383018093820122E0A80148
:1001900068EB8EEEF0D3F801808190E0982F8827ED
:1001A0002881820F911D9093AD018093AC0122E0D4
:1001B000A8016AEB8EEEDFD3F801808190E0982FE2
:1001C00088272881820F911D9093520180935101BD
:1001D00022E0A8016CEB8EEECED3F801808190E096
:1001E000982F88272881820F911D9093A5018093D5
:1001F000A40122E0A8016EEB8EEEBDD3F801608170
:1002000070E0762F66278881EB01C80FD11DD0934F
:100210006301C093620160919E0170919F018827E4
:1002200077FD8095982F43DA20E030E040EA5BE3E9
:10023000CADA2B013C0160919C0170919D0180E024
:1002400090E033DA2FE632E143E053E3BCDA6B01AE
:100250007C016091820170918301882777FD8095F0
:10026000982F25DA20E030E048EC57E3ACDA4B0178
:100270005C01609176017091770180E090E015DA81
:100280002DEC3CEC4CE454E39EDA609394017093C3
:100290009501809396019093970160917C017091F4
:1002A0007D0180E090E001DA609353017093540186
:1002B00080935501909356016091A4017091A5011E
:1002C000882777FD8095982FF2D92AE037ED43EA09
:1002D0005DE379DA609398017093990180939A01B4
:1002E00090939B01BE01882777FD8095982FDFD9D9
:1002F00020E030E040E253E43FD9609390017093F6
:10030000910180939201909393016091A601709165
:10031000A701882777FD8095982FC9D96093880118
:100320007093890180938A0190938B01609164019D
:1003300070916501882777FD8095982FB8D920E0C6
:1003400030E040EA5CE33FDA6093A0017093A101E2
:100350008093A2019093A3016091AC017091AD01D3
:10036000882777FD8095982FA2D920E030E048E4D7
:100370005AE329DA609384017093850180938601A2
:100380009093870120E030E040E057E4C701B601D8
:100390001ADA60935E0170935F018093600190931D
:1003A0006101A3019201C701B6010DDA6093AE01AC
:1003B0007093AF018093B0019093B101A5019401B6
:1003C000C701B60100DA60937E0170937F018093CC
:1003D0008001909381018CEE91E5A7E1B0E48093D8
:1003E0004D0190934E01A0934F01B093500180E3D3
:1003F00094E3AEE7BFE380938C0190938D01A093CB
:100400008E01B0938F0180E097E5A4E9B6E3809375
:100410005A0190935B01A0935C01B0935D0181E070
:1004200001C080E0DF91CF911F910F91FF90EF907D
:10043000DF90CF90BF90AF909F908F907F906F9004
:100440005F904F9008952F923F924F925F926F92DC
:100450007F928F929F92AF92BF92CF92DF92EF9254
:10046000FF920F931F93CF93DF9300D000D0CDB7AF
:10047000DEB75C011B018EE28093570121E047E566
:1004800051E064EF8EEE3ED48FE097E20197F1F7F2
:1004900000C0000022E047E551E066EF8EEE6BD22F
:1004A00007E511E0F801608170E0762F6627809102
:1004B0005801680F711D882777FD8095982FF7D810
:1004C000609378017093790180937A0190937B0116
:1004D00020915301309154014091550150915601A2
:1004E000E6D7209194013091950140919601509169
:1004F000970169D96B017C012091900130919101A4
:100500004091920150919301D3D79B01AC0160912E
:1005100098017091990180919A0190919B012CD83A
:10052000A7019601C5D720E030E040E251E44BD965
:100530008BD86B017C01F501608371838283938387
:1005400084E3F801808321E0A80164EF8EEEDAD322
:100550008FE59AEE0197F1F700C0000023E0A801B3
:1005600066EF8EEE08D26091570170E080E090E077
:100570009ED820E030E040E853E425D94B015C01EF
:100580006091580170E080E090E091D89B01AC014F
:10059000C501B4018DD74B015C016091590170E038
:1005A00080E090E084D820E030E040E85BE30BD9C5
:1005B0009B01AC01C501B4017BD72B013C016093C9
:1005C000A8017093A9018093AA019093AB01C70180
:1005D000B6016A5F7109810991092AE030E040E0C3
:1005E00050E076D9CA01B90162D86B017C019B0148
:1005F000AC01E9D84B015C01209184013091850167
:100600004091860150918701DED869837A838B837C
:100610009C832091A0013091A1014091A2015091B1
:10062000A301C701B601CFD89B01AC0169817A81D2
:100630008B819C813DD72091880130918901409127
:100640008A0150918B0134D79B01AC01C301B201E7
:100650002ED72B013C0120917E0130917F014091EA
:10066000800150918101C501B401ADD84B015C01FD
:100670002091AE013091AF014091B0015091B10194
:10068000C701B601A0D89B01AC01C501B40110D7C8
:1006900020915E0130915F014091600150916101B4
:1006A00007D79B01AC01C301B20166D76B017C0186
:1006B0009B01AC0188D820915A0130915B01409197
:1006C0005C0150915D017FD84B015C0120918C0150
:1006D00030918D0140918E0150918F01C701B6017B
:1006E00072D89B01AC01C501B401E2D620914D0145
:1006F00030914E0140914F0150915001D9D620E0E8
:1007000030E048EC52E45FD89FD7F10160837183F9
:10071000828393830F900F900F900F90DF91CF9172
:100720001F910F91FF90EF90DF90CF90BF90AF900F
:100730009F908F907F906F905F904F903F902F9001
:1007400008958D9827E030E080E0EAE0F0E061E095
:1007500070E020C04AE14A95F1F700C085991EC0BB
:100760009150C1F71BC04AE14A95F1F700C09F5F65
:10077000859B03C09F30B9F702C0963040F0AB01B3
:10078000022E02C0440F551F0A94E2F7840F215035
:10079000310940F0859902C09E2FDCCF859BF7CFB1
:1007A0009F2FE1CF0895EF92FF920F931F93CF9366
:1007B000DF93EC018B018D989598859908C08FE1A6
:1007C0009EE40197F1F700C00000859B1DC08D9A43
:1007D000EFE3FCE93197F1F700C000008D98F0EAF3
:1007E000FA95F1F7859912C0859BFECF8599FECFCA
:1007F000A8DFE82EA6DFA5DFF82EA3DFA2DFF80131
:10080000E082F8828FEF03C080E001C080E0DF91DA
:10081000CF911F910F91FF90EF90089596988E9A27
:1008200087EE93E00197F1F700C000008E9890EA00
:100830009A95F1F780B3E7EEF3E03197F1F700C056
:10084000000086FB882780F991E08927819508952B
:10085000F89420E030E090E0AC01022E02C0559503
:1008600047950A94E2F740FF0BC08E9A4AE14A95F9
:10087000F1F700C08E9842E94A95F1F700C009C02F
:100880008E9A40EA4A95F1F78E984DE04A95F1F735
:1008900000002F5F3F4F28303105F1F6789408951E
:1008A000F89420E030E080E061E070E08E9A9DE016
:1008B0009A95F1F700008E9898E29A95F1F7869B49
:1008C00008C0AB01022E02C0440F551F0A94E2F784
:1008D000842B95E89A95F1F700002F5F3F4F283061
:1008E000310521F77894089599DF882321F08CEC65
:1008F000AFDF84E4ADDF0895CF92DF92EF92FF92F5
:100900008DDF882381F18CECA3DF8EEBA1DFC8DFC4
:10091000C82ED12CE12CF12CC3DF282F30E0322F50
:100920002227C901AA2797FDA095BA2F9C01AD01E6
:100930002C0D3D1D4E1D5F1DA4E6B0E0E5D76B01FB
:100940007C0199232CF42FE0C20ED11CE11CF11C78
:10095000D701C601689413F8B595A7959795879523
:100960001694D1F703C080E090E0DC01FF90EF9097
:10097000DF90CF900895362FAC98AD98A4986AE098
:100980006A95F1F700C0A5987AE07A95F1F700C072
:10099000A49A9AE09A95F1F700C0A59A98E09093EE
:1009A000B301E8E0A82FB0E0E150BD0102C07595A9
:1009B0006795EA95E2F760FF02C0A49801C0A49A87
:1009C0007AE07A95F1F700C0A5989AE09A95F1F748
:1009D00000C0EAE0EA95F1F700C0A59AFAE0FA95BE
:1009E000F1F700C0E091B301E150E093B301E111F0
:1009F000DBCFA598A4986AE06A95F1F700C0109241
:100A0000B3019C9903C00DC0983CC8F472E07A957C
:100A1000F1F700C09091B3019F5F9093B3019C994F
:100A2000F3CF9AE09A95F1F700C0A59AAAE0AA95AB
:100A3000F1F700C0A49ABAE0BA95F1F700C098E0C7
:100A40009093B30168E0E32FF0E06150DF0102C052
:100A5000B595A7956A95E2F7A0FF02C0A49801C0DA
:100A6000A49ABAE0BA95F1F700C0A5986AE06A9531
:100A7000F1F700C07AE07A95F1F700C0A59A9AE004
:100A80009A95F1F700C06091B30161506093B30192
:100A90006111DBCFA598A498AAE0AA95F1F700C050
:100AA0001092B3019C9903C00DC0983CC8F4B2E009
:100AB000BA95F1F700C09091B3019F5F9093B30195
:100AC0009C99F3CFEAE0EA95F1F700C0A59AFAE025
:100AD000FA95F1F700C0A49A6AE06A95F1F700C0B0
:100AE000AC98AD98A4987AE07A95F1F700C0A598F3
:100AF0009AE09A95F1F700C0A49AAAE0AA95F1F7B6
:100B000000C0A59A61E0680F88E08093B30170E0AF
:100B10008150FB0102C0F595E7958A95E2F7E0FF69
:100B200002C0A49801C0A49AFAE0FA95F1F700C0B7
:100B3000A5988AE08A95F1F700C09AE09A95F1F7B6
:100B400000C0A59AAAE0AA95F1F700C08091B30170
:100B500081508093B3018111DBCFA598A498BAE0AE
:100B6000BA95F1F700C01092B3019C9903C00DC073
:100B7000883CC8F4E2E0EA95F1F700C08091B30147
:100B80008F5F8093B3019C99F3CFFAE0FA95F1F768
:100B900000C0A59A6AE06A95F1F700C0A49A7AE0CD
:100BA0007A95F1F700C01092B201622F70E06150A7
:100BB0007109161617060CF09AC030E0FA01E30F1F
:100BC000F11DA4981092B30190E0A5988AE08A954F
:100BD000F1F700C09C999F5FAAE0AA95F1F700C0C9
:100BE000A59ABAE0BA95F1F700C08AE08A95F1F7C4
:100BF00000C0990F3091B3013F5F3093B30137309C
:100C000020F3A598AAE0AA95F1F700C09C999F5FF0
:100C1000BAE0BA95F1F700C0A59A8AE08A95F1F793
:100C200000C0AAE0AA95F1F700C09083A49AA59805
:100C3000BAE0BA95F1F700C0A59AA4983091B20134
:100C40003F5F3093B201832F90E0861797070CF433
:100C5000B5CF822F90E00197FA01E80FF91FA49811
:100C60001092B3014DC0A5986AE06A95F1F700C0F3
:100C70009C998F5F7AE07A95F1F700C0A59A9AE087
:100C80009A95F1F700C0AAE0AA95F1F700C0880F85
:100C90009091B3019F5F9093B301973020F3A59893
:100CA000BAE0BA95F1F700C09C998F5F6AE06A9547
:100CB000F1F700C0A59A7AE07A95F1F700C09AE0C2
:100CC0009A95F1F700C08083A498A598AAE0AA9508
:100CD000F1F700C0A59AA49ABAE0BA95F1F700C05E
:100CE000A598EAE0EA95F1F700C0A4980895822F4C
:100CF00090E00197FA01E80FF91FA4981092B30150
:100D000080E0B1CFE82FAC98AD98A4988AE08A959E
:100D1000F1F700C0A598AAE0AA95F1F700C0A49A3F
:100D2000BAE0BA95F1F700C0A59A88E08093B301C4
:100D3000F0E08150DF0102C0B595A7958A95E2F7F2
:100D4000A0FF02C0A49801C0A49ABAE0BA95F1F736
:100D500000C0A5988AE08A95F1F700C0AAE0AA959C
:100D6000F1F700C0A59ABAE0BA95F1F700C08091FA
:100D7000B30181508093B3018111DBCFA598A49872
:100D8000EAE0EA95F1F700C01092B3019C9903C024
:100D90000DC0883CC8F4F2E0FA95F1F700C08091EC
:100DA000B3018F5F8093B3019C99F3CF8AE08A955A
:100DB000F1F700C0A59AAAE0AA95F1F700C0A49A9D
:100DC000BAE0BA95F1F700C088E08093B30170E013
:100DD0008150FB0102C0F595E7958A95E2F7E0FFA7
:100DE00002C0A49801C0A49AFAE0FA95F1F700C0F5
:100DF000A5988AE08A95F1F700C0AAE0AA95F1F7D4
:100E000000C0A59ABAE0BA95F1F700C08091B3018D
:100E100081508093B3018111DBCFA598A498EAE0BB
:100E2000EA95F1F700C01092B3019C9903C00DC080
:100E3000883CC8F4F2E0FA95F1F700C08091B30164
:100E40008F5F8093B3019C99F3CF8AE08A95F1F785
:100E500000C0A59AAAE0AA95F1F700C0A49ABAE04A
:100E6000BA95F1F700C01092B201222309F45DC0D7
:100E700080E038E0FA01E80FF11D60813093B301A2
:100E8000832F70E08150FB0102C0F595E7958A95AC
:100E9000E2F7E0FF02C0A49801C0A49AFAE0FA9534
:100EA000F1F700C0A5988AE08A95F1F700C0AAE0A2
:100EB000AA95F1F700C0A59ABAE0BA95F1F700C07B
:100EC0008091B30181508093B3018111DBCFA5984C
:100ED000A498EAE0EA95F1F700C01092B3019C995A
:100EE00003C00DC0883CC8F4F2E0FA95F1F700C0E9
:100EF0008091B3018F5F8093B3019C99F3CF8AE017
:100F00008A95F1F700C0A59AAAE0AA95F1F700C06A
:100F1000A49ABAE0BA95F1F700C08091B2018F5F50
:100F20008093B201821708F4A5CFA49AEAE0EA956B
:100F3000F1F700C0A598FAE0FA95F1F700C0A4987F
:100F400008952FEF31E18AE7215030408040E1F7EA
:100F500000C00000BA9A83E28FBD8AE08EBD19BC42
:100F600018BC88B599B58F3F934080F488B599B582
:100F7000019699BD88BD8FE99FE00197F1F700C008
:100F8000000088B599B58F3F934080F360E07CE224
:100F900081E090E067D210BC88E089B9599A85E673
:100FA00090E076D2FFEF21E13AE7F1502040304067
:100FB000E1F700C000008CE6E8EDF0E0A8EDB1E05C
:100FC00001900D928A95E1F74AD828DC882351F0E8
:100FD0008CEC3EDC8EE43CDC8FEF3ADC8FEF38DCCF
:100FE0008FE736DC88B599B5892B79F088B599B546
:100FF000019799BD88BD8FE99FE00197F1F700C087
:10100000000088B599B5892B89F70F2EF5E38F2E4F
:10101000F5E09F2EA12CB12CF02D0F2EF6EF4F2EC8
:10102000F1E05F2EF02D0F2EFAE0CF2ED12CE12C27
:10103000F12CF02D0F2EF5EF2F2EF1E03F2EF02D9D
:101040000BC088B599B5019699BD88BDEFE9FFE061
:101050003197F1F700C0000088B599B58F3F9340F4
:1010600080F342DC2FEF39E688E1215030408040A8
:10107000E1F700C0000040DC9093470180934601F7
:1010800064E670E08CE491E08EDB60E670E088E47A
:1010900091E0D9D9209160003091610040916200C7
:1010A00050916300A4E6B0E02FD4A501940110D4C0
:1010B000622E732E042F152F209360003093610051
:1010C0004093620050936300609144017091450128
:1010D00080E090E0A7019601D9D3605DF2016083C2
:1010E000CA01B901A7019601D1D3605DF101608306
:1010F000CA01B901A7019601C9D3605DE4EFF1E02F
:101100006083CA01B901A7019601C0D3605DE3EF16
:10111000F1E06083C0914601D0914701DD2374F076
:10112000CE01AA2797FDA095BA2F8093D401909362
:10113000D501A093D601B093D70110C08827992775
:101140008C1B9D0BAA2797FDA095BA2F8093D401E5
:101150009093D501A093D601B093D7016091D401AB
:101160007091D5018091D6019091D701A701960188
:101170008DD3605DE6E0F2E06083CA01B901A701AA
:10118000960184D3605DE5E0F2E06083CA01B901B5
:10119000A70196017BD3605DE3E0F2E06083CA01C2
:1011A000B901A701960172D3605DE2E0F2E06083CD
:1011B000DD2324F48DE28093010203C080E3809359
:1011C000010280914C01882374F0992787FD909546
:1011D000A92FB92F8093D4019093D501A093D60164
:1011E000B093D70110C0992781950CF49095AA2748
:1011F00097FDA095BA2F8093D4019093D501A09329
:10120000D601B093D7016091D4017091D50180913E
:10121000D6019091D701A701960138D3605DE3E133
:10122000F2E06083CA01B901A70196012FD3605D86
:10123000E2E1F2E06083DD2324F48DE28093110289
:1012400003C080E3809311026091640070E080E04D
:1012500090E0A70196011AD3605DEFE1F2E06083B0
:10126000CA01B901A701960111D3605D60931E0206
:101270008091480190914901A0914A01B0914B01A0
:10128000BB234CF08093D4019093D501A093D60159
:10129000B093D7010FC0B095A095909581959F4FC1
:1012A000AF4FBF4F8093D4019093D501A093D60147
:1012B000B093D7016091D4017091D5018091D6018E
:1012C0009091D701A7019601E1D2605D60932F0252
:1012D000CA01B901A7019601D9D2605D60932D02C0
:1012E000CA01B901A7019601D1D2605D60932C02B9
:1012F000DD2324F48DE280932B0203C080E38093EE
:101300002B02662D772D802F912FA7019601BED23B
:10131000605D60933F02CA01B901A7019601B6D290
:10132000605D60933D02CA01B901A7019601AED28A
:10133000605D60933C022093D4013093D5014093CB
:10134000D6015093D701CA01B901A70196019ED2D7
:10135000605D60933B028EE690E09AD0FFEF21E162
:101360003AE7F15020403040E1F700C0000082E948
:1013700090E08ED08FEF90E7E2E081509040E04027
:10138000E1F700C0000080EA90E082D0FFEF20E7A4
:1013900032E0F15020403040E1F700C0000087EC1F
:1013A00090E076D08FEF90E7E2E081509040E0400F
:1013B000E1F700C0000088ED91E06AD0809144011F
:1013C000909145010196909345018093440188B521
:1013D00099B5892B79F088B599B5019799BD88BDE4
:1013E0008FE99FE00197F1F700C0000088B599B53B
:1013F000892B89F79FEFE3EBF4EC24E09150E04078
:10140000F0402040D9F700C000003FEF83EB94ECA0
:10141000E4E0315080409040E040D9F700C0000047
:10142000FFEF23EB34EC84E0F1502040304080406B
:10143000D9F700C000009FEFE3EBF4EC24E09150FB
:10144000E040F0402040D9F700C000003FEF83EBC0
:1014500094ECE4E0315080409040E040D9F700C087
:101460000000FACD9B01AC0121503109410951091D
:1014700060E271EA87E090E009D210BC29B988E007
:101480008AB98EE880BD08955D9BFECF8CB9089522
:10149000CF93DF93EC012196FC018081882321F01A
:1014A000F3DF89918111FCCFDF91CF9108955058DE
:1014B000BB27AA270ED04DC13ED130F043D120F03A
:1014C00031F49F3F11F41EF433C10EF4E095E7FBB5
:1014D00029C1E92F4FD180F3BA1762077307840738
:1014E000950718F071F49EF567C10EF4E0950B2E88
:1014F000BA2FA02D0B01B90190010C01CA01A00166
:101500001124FF27591B99F0593F50F4503E68F1C0
:101510001A16F040A22F232F342F4427585FF3CF01
:10152000469537952795A795F0405395C9F77EF4D2
:101530001F16BA0B620B730B840BBAF09150A1F01B
:10154000FF0FBB1F661F771F881FC2F70EC0BA0FA1
:10155000621F731F841F48F4879577956795B79529
:10156000F7959E3F08F0B3CF9395880F08F0992721
:10157000EE0F9795879508950CD0EBC0E3D040F01F
:10158000DAD030F021F45F3F19F0CCC0511115C111
:10159000CFC0F0D098F39923C9F35523B1F3951B2D
:1015A000550BBB27AA2762177307840738F09F5F84
:1015B0005F4F220F331F441FAA1FA9F333D00E2EF3
:1015C0003AF0E0E830D091505040E695001CCAF760
:1015D00029D0FE2F27D0660F771F881FBB1F261725
:1015E00037074807AB07B0E809F0BB0B802DBF01F8
:1015F000FF2793585F4F2AF09E3F510568F092C035
:10160000DCC05F3FECF3983EDCF3869577956795F9
:10161000B795F7959F5FC9F7880F911D96958795A8
:1016200097F90895E1E0660F771F881FBB1F6217C7
:1016300073078407BA0720F0621B730B840BBA0B85
:10164000EE1F88F7E095089504D06894B111B5C0F5
:10165000089598D088F09F5790F0B92F9927B751E7
:10166000A0F0D1F0660F771F881F991F1AF0BA9566
:10167000C9F712C0B13081F09FD0B1E008959CC08D
:10168000672F782F8827B85F39F0B93FCCF386955C
:1016900077956795B395D9F73EF4909580957095B9
:1016A00061957F4F8F4F9F4F0895E89409C097FB36
:1016B0003EF490958095709561957F4F8F4F9F4F29
:1016C0009923A9F0F92F96E9BB279395F69587956D
:1016D00077956795B795F111F8CFFAF4BB0F11F430
:1016E00060FF1BC06F5F7F4F8F4F9F4F16C08823D7
:1016F00011F096E911C0772321F09EE8872F762F0D
:1017000005C0662371F096E8862F70E060E02AF04D
:101710009A95660F771F881FDAF7880F9695879539
:1017200097F9089597F99F6780E870E060E0089561
:101730009FEF80EC089500240A94161617061806E9
:101740000906089500240A941216130614060506C5
:101750000895092E0394000C11F4882352F0BB0F56
:1017600040F4BF2B11F460FF04C06F5F7F4F8F4FB9
:101770009F4F089557FD9058440F551F59F05F3FF4
:1017800071F04795880F97FB991F61F09F3F79F0A3
:1017900087950895121613061406551FF2CF469525
:1017A000F1DF08C0161617061806991FF1CF8695A7
:1017B0007105610508940895E894BB27662777278B
:1017C000CB0197F908950BD0C4CFB5DF28F0BADF6D
:1017D00018F0952309F0A6CFABCF1124EECFCADFC6
:1017E000A0F3959FD1F3950F50E0551F629FF00134
:1017F000729FBB27F00DB11D639FAA27F00DB11D8D
:10180000AA1F649F6627B00DA11D661F829F222715
:10181000B00DA11D621F739FB00DA11D621F839F9C
:10182000A00D611D221F749F3327A00D611D231F72
:10183000849F600D211D822F762F6A2F11249F57C0
:1018400050408AF0E1F088234AF0EE0FFF1FBB1FE3
:10185000661F771F881F91505040A9F79E3F510582
:1018600070F060CFAACF5F3FECF3983EDCF3869533
:1018700077956795B795F795E7959F5FC1F7FE2B2D
:10188000880F911D9695879597F90895A1E21A2ED4
:10189000AA1BBB1BFD010DC0AA1FBB1FEE1FFF1F14
:1018A000A217B307E407F50720F0A21BB30BE40B64
:1018B000F50B661F771F881F991F1A9469F76095AB
:1018C0007095809590959B01AC01BD01CF01089565
:1018D000052E97FB16F400940FD057FD05D0D6DFE8
:1018E00007FC02D046F408C05095409530952195EC
:1018F0003F4F4F4F5F4F089590958095709561953C
:101900007F4F8F4F9F4F089509D0A59F900DB49F93
:10191000900DA49F800D911D11240895A29FB001E8
:10192000B39FC001A39F01D0B29F700D811D1124F0
:08193000911D0895F894FFCF0A
:10193800A81600000A41542B5253540D0A00415472
:101948002B43574A41503D224475626F73536F755C
:101958007468222C226475626F7332303138220D1C
:101968000A0041542B4349504D55583D300D0A004B
:1019780041542B43495053544152543D22544350EF
:10198800222C226E61726F646D6F6E2E7275222C1E
:10199800383238330D0A0041542B43495053454ED1
:1019A800443D3130370D0A002363633A35303A65D8
:1019B800333A32623A35353A66630A237570746988
:1019C8006D6523303030300A234453313842323089
:1019D800233030302E30300A2344485431315F549C
:1019E800233030300A2344485431315F48233030A3
:1019F8000A23424D503138305F54233030302E3076
:101A08000A23424D503138305F50233030302E3069
:041A18000A2323007A
:00000001FF
