S01000004E61726F644D6F6E2E73726563F6
S113000012C02CC02BC02AC029C028C027C026C0BB
S113001025C024C023C022C021C020C01FC01EC0D0
S11300201DC01CC01BC011241FBECFE5D4E0DEBF21
S1130030CDBF11E0A0E6B0E0E8E2FAE102C005902D
S11300400D92A634B107D9F722E0A6E4B1E001C0CD
S11300501D92AB36B207E1F7BAD7E4CCD1CF4F92B9
S11300605F926F927F928F929F92AF92BF92CF9244
S1130070DF92EF92FF920F931F93CF93DF9321E0D0
S113008049E551E060ED8EEE76D4809159018535D5
S113009009F0C7C122E049E551E06AEA8EEE6BD46B
S11300A009E511E0F801808190E0982F8827CAE5DE
S11300B0D1E02881820F911D9093A9018093A8011A
S11300C022E0A8016CEA8EEE56D4F801808190E01B
S11300D0982F88272881820F911D90936701809320
S11300E0660122E0A8016EEA8EEE45D4F801808113
S11300F090E0982F88272881820F911D9093A10169
S11301008093A00122E0A80160EB8EEE34D4F801C4
S1130110808190E0982F88272881820F911D9093E9
S11301209F0180939E0122E0A80162EB8EEE23D40E
S1130130F801808190E0982F88272881820F911DF3
S1130140909379018093780122E0A80164EB8EEE0C
S113015012D4F801808190E0982F88272881820F9B
S1130160911D90937F0180937E0122E0A80166EBAC
S11301708EEE01D4F801808190E0982F88272881A1
S1130180820F911D909385018093840122E0A80140
S113019068EB8EEEF0D3F801808190E0982F8827E9
S11301A02881820F911D9093AF018093AE0122E0CC
S11301B0A8016AEB8EEEDFD3F801808190E0982FDE
S11301C088272881820F911D9093540180935301B5
S11301D022E0A8016CEB8EEECED3F801808190E092
S11301E0982F88272881820F911D9093A7018093CF
S11301F0A60122E0A8016EEB8EEEBDD3F80160816A
S113020070E0762F66278881EB01C80FD11DD0934B
S11302106501C09364016091A0017091A1018827D8
S113022077FD8095982FBBDA20E030E040EA5BE36D
S113023042DB2B013C0160919E0170919F0180E0A3
S113024090E0ABDA2FE632E143E053E334DB6B01B9
S11302507C016091840170918501882777FD8095E8
S1130260982F9DDA20E030E048EC57E324DB4B0183
S11302705C01609178017091790180E090E08DDA01
S11302802DEC3CEC4CE454E316DB60939601709344
S11302909701809398019093990160917E017091E8
S11302A07F0180E090E079DA609355017093560104
S11302B080935701909358016091A6017091A70112
S11302C0882777FD8095982F6ADA2AE037ED43EA8C
S11302D05DE3F1DA60939A0170939B0180939C0132
S11302E090939D01BE01882777FD8095982F57DA5A
S11302F020E030E040E253E4B7D960939201709378
S1130300930180939401909395016091A801709159
S1130310A901882777FD8095982F41DA60938A0197
S113032070938B0180938C0190938D016091660191
S113033070916701882777FD8095982F30DA20E047
S113034030E040EA5CE3B7DA6093A2017093A30162
S11303508093A4019093A5016091AE017091AF01C7
S1130360882777FD8095982F1ADA20E030E048E45A
S11303705AE3A1DA60938601709387018093880120
S11303809093890120E030E040E057E4C701B601D2
S113039092DA60936001709361018093620190939B
S11303A06301A3019201C701B60185DA6093B0012C
S11303B07093B1018093B2019093B301A5019401AC
S11303C0C701B60178DA609380017093810180934C
S11303D08201909383018CEE91E5A7E1B0E48093D0
S11303E04F0190935001A0935101B093520180E3C7
S11303F094E3AEE7BFE380938E0190938F01A093C3
S11304009001B093910180E097E5A4E9B6E380936D
S11304105C0190935D01A0935E01B0935F0181E064
S113042001C080E0DF91CF911F910F91FF90EF9079
S1130430DF90CF90BF90AF909F908F907F906F9000
S11304405F904F9008952F923F924F925F926F92D8
S11304507F928F929F92AF92BF92CF92DF92EF9250
S1130460FF920F931F93CF93DF9300D000D0CDB7AB
S1130470DEB75C011B018EE28093590121E049E55E
S113048051E064EF8EEE3ED48FE097E20197F1F7EE
S113049000C0000022E049E551E066EF8EEE6BD229
S11304A009E511E0F801608170E0762F66278091FC
S11304B05A01680F711D882777FD8095982F6FD991
S11304C060937A0170937B0180937C0190937D010A
S11304D02091550130915601409157015091580196
S11304E05ED82091960130919701409198015091E6
S11304F09901E1D96B017C01209192013091930122
S113050040919401509195014BD89B01AC016091AD
S11305109A0170919B0180919C0190919D01A4D8B6
S1130520A70196013DD820E030E040E251E4C3D970
S113053003D96B017C01F50160837183828393830A
S113054084E3F801808321E0A80164EF8EEEDAD31E
S11305508FE59AEE0197F1F700C0000023E0A801AF
S113056066EF8EEE08D26091590170E080E090E071
S113057016D920E030E040E853E49DD94B015C01FA
S113058060915A0170E080E090E009D99B01AC01D0
S1130590C501B40105D84B015C0160915B0170E0B9
S11305A080E090E0FCD820E030E040E85BE383D9D1
S11305B09B01AC01C501B401F3D72B013C0160934D
S11305C0AA017093AB018093AC019093AD01C70174
S11305D0B6016A5F7109810991092AE030E040E0BF
S11305E050E0EED9CA01B901DAD86B017C019B0154
S11305F0AC0161D94B015C012091860130918701E6
S1130600409188015091890156D969837A838B83FB
S11306109C832091A2013091A3014091A4015091A7
S1130620A501C701B60147D99B01AC0169817A8153
S11306308B819C81B5D720918A0130918B014091A7
S11306408C0150918D01ACD79B01AC01C301B20167
S1130650A6D72B013C01209180013091810140916A
S1130660820150918301C501B40125D94B015C017C
S11306702091B0013091B1014091B2015091B30188
S1130680C701B60118D99B01AC01C501B40188D7D3
S113069020916001309161014091620150916301A8
S11306A07FD79B01AC01C301B201DED76B017C0192
S11306B09B01AC0100D920915C0130915D01409116
S11306C05E0150915F01F7D84B015C0120918E01CE
S11306D030918F014091900150919101C701B60171
S11306E0EAD89B01AC01C501B4015AD720914F014E
S11306F030915001409151015091520151D720E065
S113070030E048EC52E4D7D817D8F1016083718304
S1130710828393830F900F900F900F90DF91CF916E
S11307201F910F91FF90EF90DF90CF90BF90AF900B
S11307309F908F907F906F905F904F903F902F90FD
S113074008958D9827E030E080E0EAE0F0E061E091
S113075070E020C04AE14A95F1F700C085991EC0B7
S11307609150C1F71BC04AE14A95F1F700C09F5F61
S1130770859B03C09F30B9F702C0963040F0AB01AF
S1130780022E02C0440F551F0A94E2F7840F215031
S1130790310940F0859902C09E2FDCCF859BF7CFAD
S11307A09F2FE1CF0895EF92FF920F931F93CF9362
S11307B0DF93EC018B018D989598859908C08FE1A2
S11307C09EE40197F1F700C00000859B1DC08D9A3F
S11307D0EFE3FCE93197F1F700C000008D98F0EAEF
S11307E0FA95F1F7859912C0859BFECF8599FECFC6
S11307F0A8DFE82EA6DFA5DFF82EA3DFA2DFF8012D
S1130800E082F8828FEF03C080E001C080E0DF91D6
S1130810CF911F910F91FF90EF90089596988E9A23
S113082087EE93E00197F1F700C000008E9890EAFC
S11308309A95F1F780B3E7EEF3E03197F1F700C052
S1130840000086FB882780F991E089278195089527
S1130850F89420E030E090E0AC01022E02C05595FF
S113086047950A94E2F740FF0BC08E9A4AE14A95F5
S1130870F1F700C08E9842E94A95F1F700C009C02B
S11308808E9A40EA4A95F1F78E984DE04A95F1F731
S113089000002F5F3F4F28303105F1F6789408951A
S11308A0F89420E030E080E061E070E08E9A9DE012
S11308B09A95F1F700008E9898E29A95F1F7869B45
S11308C008C0AB01022E02C0440F551F0A94E2F780
S11308D0842B95E89A95F1F700002F5F3F4F28305D
S11308E0310521F77894089599DF882321F08CEC61
S11308F0AFDF84E4ADDF0895CF92DF92EF92FF92F1
S11309008DDF882381F18CECA3DF8EEBA1DFC8DFC0
S1130910C82ED12CE12CF12CC3DF282F30E0322F4C
S11309202227C901AA2797FDA095BA2F9C01AD01E2
S11309302C0D3D1D4E1D5F1DA4E6B0E05DD86B017E
S11309407C0199232CF42FE0C20ED11CE11CF11C74
S1130950D701C601689413F8B595A795979587951F
S11309601694D1F703C080E090E0DC01FF90EF9093
S1130970DF90CF900895362FAC98AD98A4986AE094
S11309806A95F1F700C0A5987AE07A95F1F700C06E
S1130990A49A9AE09A95F1F700C0A59A98E09093EA
S11309A0B501E8E0A82FB0E0E150BD0102C07595A3
S11309B06795EA95E2F760FF02C0A49801C0A49A83
S11309C07AE07A95F1F700C0A5989AE09A95F1F744
S11309D000C0EAE0EA95F1F700C0A59AFAE0FA95BA
S11309E0F1F700C0E091B501E150E093B501E111E8
S11309F0DBCFA598A4986AE06A95F1F700C010923D
S1130A00B5019C9903C00DC0983CC8F472E07A9576
S1130A10F1F700C09091B5019F5F9093B5019C9947
S1130A20F3CF9AE09A95F1F700C0A59AAAE0AA95A7
S1130A30F1F700C0A49ABAE0BA95F1F700C098E0C3
S1130A409093B50168E0E32FF0E06150DF0102C04C
S1130A50B595A7956A95E2F7A0FF02C0A49801C0D6
S1130A60A49ABAE0BA95F1F700C0A5986AE06A952D
S1130A70F1F700C07AE07A95F1F700C0A59A9AE000
S1130A809A95F1F700C06091B50161506093B5018A
S1130A906111DBCFA598A498AAE0AA95F1F700C04C
S1130AA01092B5019C9903C00DC0983CC8F4B2E003
S1130AB0BA95F1F700C09091B5019F5F9093B5018D
S1130AC09C99F3CFEAE0EA95F1F700C0A59AFAE021
S1130AD0FA95F1F700C0A49A6AE06A95F1F700C0AC
S1130AE0AC98AD98A4987AE07A95F1F700C0A598EF
S1130AF09AE09A95F1F700C0A49AAAE0AA95F1F7B2
S1130B0000C0A59A61E0680F88E08093B50170E0A9
S1130B108150FB0102C0F595E7958A95E2F7E0FF65
S1130B2002C0A49801C0A49AFAE0FA95F1F700C0B3
S1130B30A5988AE08A95F1F700C09AE09A95F1F7B2
S1130B4000C0A59AAAE0AA95F1F700C08091B5016A
S1130B5081508093B5018111DBCFA598A498BAE0A8
S1130B60BA95F1F700C01092B5019C9903C00DC06D
S1130B70883CC8F4E2E0EA95F1F700C08091B50141
S1130B808F5F8093B5019C99F3CFFAE0FA95F1F762
S1130B9000C0A59A6AE06A95F1F700C0A49A7AE0C9
S1130BA07A95F1F700C01092B401622F70E06150A1
S1130BB07109161617060CF09AC030E0FA01E30F1B
S1130BC0F11DA4981092B50190E0A5988AE08A9549
S1130BD0F1F700C09C999F5FAAE0AA95F1F700C0C5
S1130BE0A59ABAE0BA95F1F700C08AE08A95F1F7C0
S1130BF000C0990F3091B5013F5F3093B501373094
S1130C0020F3A598AAE0AA95F1F700C09C999F5FEC
S1130C10BAE0BA95F1F700C0A59A8AE08A95F1F78F
S1130C2000C0AAE0AA95F1F700C09083A49AA59801
S1130C30BAE0BA95F1F700C0A59AA4983091B4012E
S1130C403F5F3093B401832F90E0861797070CF42D
S1130C50B5CF822F90E00197FA01E80FF91FA4980D
S1130C601092B5014DC0A5986AE06A95F1F700C0ED
S1130C709C998F5F7AE07A95F1F700C0A59A9AE083
S1130C809A95F1F700C0AAE0AA95F1F700C0880F81
S1130C909091B5019F5F9093B501973020F3A5988B
S1130CA0BAE0BA95F1F700C09C998F5F6AE06A9543
S1130CB0F1F700C0A59A7AE07A95F1F700C09AE0BE
S1130CC09A95F1F700C08083A498A598AAE0AA9504
S1130CD0F1F700C0A59AA49ABAE0BA95F1F700C05A
S1130CE0A598EAE0EA95F1F700C0A4980895822F48
S1130CF090E00197FA01E80FF91FA4981092B5014A
S1130D0080E0B1CFE82FAC98AD98A4988AE08A959A
S1130D10F1F700C0A598AAE0AA95F1F700C0A49A3B
S1130D20BAE0BA95F1F700C0A59A88E08093B501BE
S1130D30F0E08150DF0102C0B595A7958A95E2F7EE
S1130D40A0FF02C0A49801C0A49ABAE0BA95F1F732
S1130D5000C0A5988AE08A95F1F700C0AAE0AA9598
S1130D60F1F700C0A59ABAE0BA95F1F700C08091F6
S1130D70B50181508093B5018111DBCFA598A4986A
S1130D80EAE0EA95F1F700C01092B5019C9903C01E
S1130D900DC0883CC8F4F2E0FA95F1F700C08091E8
S1130DA0B5018F5F8093B5019C99F3CF8AE08A9552
S1130DB0F1F700C0A59AAAE0AA95F1F700C0A49A99
S1130DC0BAE0BA95F1F700C088E08093B50170E00D
S1130DD08150FB0102C0F595E7958A95E2F7E0FFA3
S1130DE002C0A49801C0A49AFAE0FA95F1F700C0F1
S1130DF0A5988AE08A95F1F700C0AAE0AA95F1F7D0
S1130E0000C0A59ABAE0BA95F1F700C08091B50187
S1130E1081508093B5018111DBCFA598A498EAE0B5
S1130E20EA95F1F700C01092B5019C9903C00DC07A
S1130E30883CC8F4F2E0FA95F1F700C08091B5015E
S1130E408F5F8093B5019C99F3CF8AE08A95F1F77F
S1130E5000C0A59AAAE0AA95F1F700C0A49ABAE046
S1130E60BA95F1F700C01092B401222309F45DC0D1
S1130E7080E038E0FA01E80FF11D60813093B5019C
S1130E80832F70E08150FB0102C0F595E7958A95A8
S1130E90E2F7E0FF02C0A49801C0A49AFAE0FA9530
S1130EA0F1F700C0A5988AE08A95F1F700C0AAE09E
S1130EB0AA95F1F700C0A59ABAE0BA95F1F700C077
S1130EC08091B50181508093B5018111DBCFA59844
S1130ED0A498EAE0EA95F1F700C01092B5019C9954
S1130EE003C00DC0883CC8F4F2E0FA95F1F700C0E5
S1130EF08091B5018F5F8093B5019C99F3CF8AE00F
S1130F008A95F1F700C0A59AAAE0AA95F1F700C066
S1130F10A49ABAE0BA95F1F700C08091B4018F5F4A
S1130F208093B401821708F4A5CFA49AEAE0EA9565
S1130F30F1F700C0A598FAE0FA95F1F700C0A4987B
S1130F400895CF92DF92EF92FF920F931F93CF9366
S1130F50DF937B01623071058CF1AC01445051097F
S1130F609B01220F331F220F331F240F351F01E073
S1130F7010E0C82ED92E1FC084819581A681B78127
S1130F804191519161917191481759076A077B0703
S1130F9054F44083518362837383EF0124978883DD
S1130FA09983AA83BB83E217F30731F70F5F1F4FBF
S1130FB00E151F0519F0EC2DFD2DDECFDF91CF911D
S1130FC01F910F91FF90EF90DF90CF9008952FEF36
S1130FD031E18AE7215030408040E1F700C0000051
S1130FE0BA9A83E28FBD8AE08EBD19BC18BC88B55D
S1130FF099B58F3F934080F488B599B5019699BD12
S113100088BD8FE99FE00197F1F700C0000088B523
S113101099B58F3F934080F360E07CE281E090E0FB
S113102099D210BC88E089B9599A85E690E0A8D293
S1131030FFEF21E13AE7F15020403040E1F700C0F2
S113104000008EE6EEE6F0E0AEEFB1E001900D9226
S11310508A95E1F704D860E670E08AE491E0F3D978
S1131060DDDB882351F08CECF3DB8EE4F1DB8FEFD6
S1131070EFDB8FEFEDDB8FE7EBDB88B599B5892BE1
S113108079F088B599B5019799BD88BD8FE99FE03E
S11310900197F1F700C0000088B599B5892B89F74D
S11310A00F2EFAEDAF2EF1E0BF2EF02D0EEF11E072
S11310B00F2EFAEE8F2EF1E09F2EF02D0F2EFCE175
S11310C06F2EF2E07F2EF02D0F2EFAE0CF2ED12CD2
S11310D0E12CF12CF02D0F2EFBE14F2EF2E05F2ED0
S11310E0F02D0F2EFAE12F2EF2E03F2EF02D0BC043
S11310F088B599B5019699BD88BDEFE9FFE03197B0
S1131100F1F700C0000088B599B58F3F934080F394
S1131110EBDB2FEF39E688E1215030408040E1F7E6
S113112000C00000E9DB9093490180934801E50188
S113113066ED71E08AE491E086D98091D6019091C0
S1131140D701A091D801B091D90189939993A9931A
S1131150B9939FEFE4E3FCE09150E040F040E1F705
S113116000C00000C017D10719F769E070E0C5019D
S1131170E8DEF40180819181A281B38180936000D3
S113118090936100A0936200B093630064E670E002
S11311908EE491E008DB609146017091470180E0A4
S11311A090E0A7019601EAD3605DF3016083CA0170
S11311B0B901A7019601E2D3605DF2016083CA011F
S11311C0B901A7019601DAD3605DF1016083CA0118
S11311D0B901A7019601D2D3605DE9E1F2E0608331
S11311E0C0914801D0914901DD2374F0CE01AA27B2
S11311F097FDA095BA2F8093D6019093D701A09321
S1131200D801B093D90110C0882799278C1B9D0B56
S1131210AA2797FDA095BA2F8093D6019093D70162
S1131220A093D801B093D9016091D6017091D701F0
S11312308091D8019091D901A70196019FD3605D57
S1131240ECE2F2E06083CA01B901A701960196D3EA
S1131250605DEBE2F2E06083CA01B901A701960187
S11312608DD3605DE9E2F2E06083CA01B901A701B0
S1131270960184D3605DE8E2F2E06083DD2324F428
S11312808DE28093270203C080E38093270280913C
S11312904E01882374F0992787FD9095A92FB92FC3
S11312A08093D6019093D701A093D801B093D9012C
S11312B010C0992781950CF49095AA2797FDA095C5
S11312C0BA2F8093D6019093D701A093D801B093FD
S11312D0D9016091D6017091D7018091D801909184
S11312E0D901A70196014AD3605DE9E3F2E0608386
S11312F0CA01B901A701960141D3605D6093380228
S1131300DD2324F48DE28093370203C080E38093CD
S113131037026091640070E080E090E0A7019601DC
S11313202DD3605D60934502CA01B901A7019601FE
S113133025D3605D6093440280914A0190914B01F2
S1131340A0914C01B0914D01BB234CF08093D60188
S11313509093D701A093D801B093D9010FC0B09551
S1131360A095909581959F4FAF4FBF4F8093D60125
S11313709093D701A093D801B093D9016091D6017D
S11313807091D7018091D8019091D901A70196015C
S1131390F5D2605D60935502CA01B901A7019601B7
S11313A0EDD2605D60935302CA01B901A7019601B1
S11313B0E5D2605D60935202DD2324F48DE28093D4
S11313C0510203C080E380935102609160007091E8
S11313D061008091620090916300A7019601CED2D2
S11313E0605D60936702CA01B901A7019601C6D284
S11313F0605D60936602CA01B901A7019601BED27D
S1131400605D60936402CA01B901A7019601B6D276
S1131410605D60936302CA01B901A7019601AED26F
S1131420605D609362022093D6013093D7014093AC
S1131430D8015093D901CA01B901A70196019ED2DE
S1131440605D609361028CED90E09AD0FFEF21E142
S11314503AE7F15020403040E1F700C0000080E05E
S113146091E08ED08FEF90E7E2E081509040E04031
S1131470E1F700C000008EE091E082D0FFEF20E7AA
S113148032E0F15020403040E1F700C0000085E335
S113149091E076D08FEF90E7E2E081509040E04019
S11314A0E1F700C000008EEF91E06AD08091460120
S11314B0909147010196909347018093460188B526
S11314C099B5892B79F088B599B5019799BD88BDEF
S11314D08FE99FE00197F1F700C0000088B599B546
S11314E0892B89F79FEFE3EBF4EC24E09150E04083
S11314F0F0402040D9F700C000003FEF83EB94ECAC
S1131500E4E0315080409040E040D9F700C0000052
S1131510FFEF23EB34EC84E0F15020403040804076
S1131520D9F700C000009FEFE3EBF4EC24E0915006
S1131530E040F0402040D9F700C000003FEF83EBCB
S113154094ECE4E0315080409040E040D9F700C092
S11315500000D9CD9B01AC01215031094109510949
S113156060E271EA87E090E009D210BC29B988E012
S11315708AB98EE880BD08955D9BFECF8CB908952D
S1131580CF93DF93EC012196FC018081882321F025
S1131590F3DF89918111FCCFDF91CF9108955058E9
S11315A0BB27AA270ED04DC13ED130F043D120F045
S11315B031F49F3F11F41EF433C10EF4E095E7FBC0
S11315C029C1E92F4FD180F3BA1762077307840743
S11315D0950718F071F49EF567C10EF4E0950B2E93
S11315E0BA2FA02D0B01B90190010C01CA01A00171
S11315F01124FF27591B99F0593F50F4503E68F1CC
S11316001A16F040A22F232F342F4427585FF3CF0C
S1131610469537952795A795F0405395C9F77EF4DD
S11316201F16BA0B620B730B840BBAF09150A1F026
S1131630FF0FBB1F661F771F881FC2F70EC0BA0FAC
S1131640621F731F841F48F4879577956795B79534
S1131650F7959E3F08F0B3CF9395880F08F099272C
S1131660EE0F9795879508950CD0EBC0E3D040F02A
S1131670DAD030F021F45F3F19F0CCC0511115C11C
S1131680CFC0F0D098F39923C9F35523B1F3951B38
S1131690550BBB27AA2762177307840738F09F5F8F
S11316A05F4F220F331F441FAA1FA9F333D00E2EFE
S11316B03AF0E0E830D091505040E695001CCAF76B
S11316C029D0FE2F27D0660F771F881FBB1F261730
S11316D037074807AB07B0E809F0BB0B802DBF0103
S11316E0FF2793585F4F2AF09E3F510568F092C040
S11316F0DCC05F3FECF3983EDCF386957795679505
S1131700B795F7959F5FC9F7880F911D96958795B3
S113171097F90895E1E0660F771F881FBB1F6217D2
S113172073078407BA0720F0621B730B840BBA0B90
S1131730EE1F88F7E095089504D06894B111B5C000
S1131740089598D088F09F5790F0B92F9927B751F2
S1131750A0F0D1F0660F771F881F991F1AF0BA9571
S1131760C9F712C0B13081F09FD0B1E008959CC098
S1131770672F782F8827B85F39F0B93FCCF3869567
S113178077956795B395D9F73EF4909580957095C4
S113179061957F4F8F4F9F4F0895E89409C097FB41
S11317A03EF490958095709561957F4F8F4F9F4F34
S11317B09923A9F0F92F96E9BB279395F695879578
S11317C077956795B795F111F8CFFAF4BB0F11F43B
S11317D060FF1BC06F5F7F4F8F4F9F4F16C08823E2
S11317E011F096E911C0772321F09EE8872F762F18
S11317F005C0662371F096E8862F70E060E02AF059
S11318009A95660F771F881FDAF7880F9695879544
S113181097F9089597F99F6780E870E060E008956C
S11318209FEF80EC089500240A94161617061806F4
S11318300906089500240A941216130614060506D0
S11318400895092E0394000C11F4882352F0BB0F61
S113185040F4BF2B11F460FF04C06F5F7F4F8F4FC4
S11318609F4F089557FD9058440F551F59F05F3FFF
S113187071F04795880F97FB991F61F09F3F79F0AE
S113188087950895121613061406551FF2CF469530
S1131890F1DF08C0161617061806991FF1CF8695B2
S11318A07105610508940895E894BB276627772796
S11318B0CB0197F908950BD0C4CFB5DF28F0BADF78
S11318C018F0952309F0A6CFABCF1124EECFCADFD1
S11318D0A0F3959FD1F3950F50E0551F629FF0013F
S11318E0729FBB27F00DB11D639FAA27F00DB11D98
S11318F0AA1F649F6627B00DA11D661F829F222721
S1131900B00DA11D621F739FB00DA11D621F839FA7
S1131910A00D611D221F749F3327A00D611D231F7D
S1131920849F600D211D822F762F6A2F11249F57CB
S113193050408AF0E1F088234AF0EE0FFF1FBB1FEE
S1131940661F771F881F91505040A9F79E3F51058D
S113195070F060CFAACF5F3FECF3983EDCF386953E
S113196077956795B795F795E7959F5FC1F7FE2B38
S1131970880F911D9695879597F90895A1E21A2EDF
S1131980AA1BBB1BFD010DC0AA1FBB1FEE1FFF1F1F
S1131990A217B307E407F50720F0A21BB30BE40B6F
S11319A0F50B661F771F881F991F1A9469F76095B6
S11319B07095809590959B01AC01BD01CF01089570
S11319C0052E97FB16F400940FD057FD05D0D6DFF3
S11319D007FC02D046F408C05095409530952195F7
S11319E03F4F4F4F5F4F0895909580957095619547
S11319F07F4F8F4F9F4F089509D0A59F900DB49F9F
S1131A00900DA49F800D911D11240895A29FB001F3
S1131A10B39FC001A39F01D0B29F700D811D1124FB
S10B1A20911D0895F894FFCF15
S1131A28BC8B01000A41542B5253540D0A00236302
S1131A38633A35303A65333A32623A35353A666351
S1131A480A23757074696D6523303030300A234475
S1131A58533138423230233030302E30300A234468
S1131A68485431315F54233030300A2344485431C8
S1131A78315F482330300A23424D503138305F54A7
S1131A88233030302E300A23424D503138305F50E5
S1131A9823303030302E30300A23230041542B4376
S1131AA8574A41503D224475626F73536F75746889
S1131AB8222C226475626F7332303138220D0A0089
S1131AC841542B4349504D55583D300D0A0041545B
S1131AD82B43495053544152543D22544350222CD1
S1131AE8226E61726F646D6F6E2E7275222C38329D
S1131AF838330D0A0041542B43495053454E443D55
S1091B083130390D0A0022
S9030000FC
