:1000000012C02CC02BC02AC029C028C027C026C0BF
:1000100025C024C023C07CC721C020C01FC01EC073
:100020001DC01CC01BC011241FBECFE5D4E0DEBF25
:10003000CDBF11E0A0E6B0E0E2EBFBE102C005902D
:100040000D92AE31B107D9F722E0AEE1B1E001C0C7
:100050001D92A530B207E1F77CD7A9CDD1CF4F9241
:100060005F926F927F928F929F92AF92BF92CF9248
:10007000DF92EF92FF920F931F93CF93DF9321E0D4
:1000800048E251E060ED8EEE6FD422E048E251E0AC
:100090006AEA8EEE69D408E211E0F801808190E00E
:1000A000982F8827C9E2D1E02881820F911D909373
:1000B00078018093770122E0A8016CEA8EEE54D497
:1000C000F801808190E0982F88272881820F911D68
:1000D000909336018093350122E0A8016EEA8EEEFE
:1000E00043D4F801808190E0982F88272881820FDF
:1000F000911D9093700180936F0122E0A80160EB45
:100100008EEE32D4F801808190E0982F88272881E4
:10011000820F911D90936E0180936D0122E0A801E2
:1001200062EB8EEE21D4F801808190E0982F882731
:100130002881820F911D909348018093470122E00E
:10014000A80164EB8EEE10D4F801808190E0982F26
:1001500088272881820F911D90934E0180934D0135
:1001600022E0A80166EB8EEEFFD3F801808190E0DB
:10017000982F88272881820F911D90935401809396
:10018000530122E0A80168EB8EEEEED3F8018081E6
:1001900090E0982F88272881820F911D90937E01EF
:1001A00080937D0122E0A8016AEB8EEEDDD3F80199
:1001B000808190E0982F88272881820F911D90934D
:1001C00023018093220122E0A8016CEB8EEECCD3B8
:1001D000F801808190E0982F88272881820F911D57
:1001E000909376018093750122E0A8016EEB8EEE6C
:1001F000BBD3F801608170E0762F66278881EB0120
:10020000C80FD11DD0933401C093330160916F01A9
:1002100070917001882777FD8095982F85DB20E00D
:1002200030E040EA5BE30CDC2B013C0160916D01A6
:1002300070916E0180E090E075DB2FE632E143E0E3
:1002400053E3FEDB6B017C0160915301709154011B
:10025000882777FD8095982F67DB20E030E048EC19
:1002600057E3EEDB4B015C0160914701709148015F
:1002700080E090E057DB2DEC3CEC4CE454E3E0DB19
:1002800060936501709366018093670190936801A4
:1002900060914D0170914E0180E090E043DB6093EE
:1002A000240170932501809326019093270160918A
:1002B000750170917601882777FD8095982F34DB42
:1002C0002AE037ED43EA5DE3BBDB6093690170939D
:1002D0006A0180936B0190936C01BE01882777FDC2
:1002E0008095982F21DB20E030E040E253E481DA72
:1002F0006093610170936201809363019093640144
:100300006091770170917801882777FD8095982F0B
:100310000BDB6093590170935A0180935B019093BA
:100320005C016091350170913601882777FD8095D9
:10033000982FFADA20E030E040EA5CE381DB60935A
:1003400071017093720180937301909374016091B5
:100350007D0170917E01882777FD8095982FE4DAE2
:1003600020E030E048E45AE36BDB60935501709382
:100370005601809357019093580120E030E040E00F
:1003800057E4C701B6015CDB60932F017093300125
:100390008093310190933201A3019201C701B6010C
:1003A0004FDB60937F017093800180938101909374
:1003B0008201A5019401C701B60142DB60934F01A0
:1003C0007093500180935101909352018CEE91E50E
:1003D000A7E1B0E480931E0190931F01A093200138
:1003E000B093210180E394E3AEE7BFE380935D0126
:1003F00090935E01A0935F01B093600180E097E568
:10040000A4E9B6E380932B0190932C01A0932D01D6
:10041000B0932E0181E0DF91CF911F910F91FF905A
:10042000EF90DF90CF90BF90AF909F908F907F9094
:100430006F905F904F9008952F923F924F925F92EE
:100440006F927F928F929F92AF92BF92CF92DF92E4
:10045000EF92FF920F931F93CF93DF9300D000D0C2
:10046000CDB7DEB75C011B018EE28093280121E04D
:1004700048E251E064EF8EEE35D48FE097E20197C9
:10048000F1F700C0000022E048E251E066EF8EEE96
:100490006BD208E211E0F801608170E0762F6627E8
:1004A00080912901680F711D882777FD8095982F0D
:1004B0003BDA6093490170934A0180934B0190931A
:1004C0004C01209124013091250140912601509149
:1004D00027012AD920916501309166014091670179
:1004E00050916801ADDA6B017C012091610130917E
:1004F0006201409163015091640117D99B01AC01E5
:100500006091690170916A0180916B0190916C0119
:1005100070D9A701960109D920E030E040E251E40A
:100520008FDACFD96B017C01F501608371838283FF
:10053000938384E3F801808321E0A80164EF8EEEC9
:10054000D1D38FE59AEE0197F1F700C0000023E0C8
:10055000A80166EF8EEE08D26091280170E080E07D
:1005600090E0E2D920E030E040E853E469DA4B0162
:100570005C016091290170E080E090E0D5D99B0199
:10058000AC01C501B401D1D84B015C0160912A01D5
:1005900070E080E090E0C8D920E030E040E85BE324
:1005A0004FDA9B01AC01C501B401BFD82B013C015E
:1005B0006093790170937A0180937B0190937C0121
:1005C000C701B6016A5F7109810991092AE030E02B
:1005D00040E050E0BADACA01B901A6D96B017C014A
:1005E0009B01AC012DDA4B015C012091550130914A
:1005F0005601409157015091580122DA69837A835C
:100600008B839C8320917101309172014091730121
:1006100050917401C701B60113DA9B01AC016981E5
:100620007A818B819C8181D82091590130915A0126
:1006300040915B0150915C0178D89B01AC01C301F2
:10064000B20172D82B013C0120914F013091500131
:100650004091510150915201C501B401F1D94B01B2
:100660005C0120917F013091800140918101509186
:100670008201C701B601E4D99B01AC01C501B401F7
:1006800054D820912F013091300140913101509187
:1006900032014BD89B01AC01C301B201AAD86B0156
:1006A0007C019B01AC01CCD920912B0130912C0114
:1006B00040912D0150912E01C3D94B015C01209135
:1006C0005D0130915E0140915F0150916001C70171
:1006D000B601B6D99B01AC01C501B40126D8209161
:1006E0001E0130911F0140912001509121011DD820
:1006F00020E030E048EC52E4A3D9E3D8F101608374
:100700007183828393830F900F900F900F90DF91EE
:10071000CF911F910F91FF90EF90DF90CF90BF90FE
:10072000AF909F908F907F906F905F904F903F9091
:100730002F9008958E9827E030E080E0EAE0F0E026
:1007400061E070E020C04AE14A95F1F700C0869967
:100750001EC09150C1F71BC04AE14A95F1F700C095
:100760009F5F869B03C09F30B9F702C0963040F070
:10077000AB01022E02C0440F551F0A94E2F7840F0A
:100780002150310940F0869902C09E2FDCCF869B14
:10079000F7CF9F2FE1CF0895EF92FF920F931F9312
:1007A000CF93DF93EC018B018E989698869908C0C1
:1007B0008FE19EE40197F1F700C00000869B1DC009
:1007C0008E9AEFE3FCE93197F1F700C000008E98B4
:1007D000F0EAFA95F1F7869912C0869BFECF8699CA
:1007E000FECFA8DFE82EA6DFA5DFF82EA3DFA2DF6D
:1007F000F801E082F8828FEF03C080E001C080E062
:10080000DF91CF911F910F91FF90EF9008959598F0
:100810008D9A87EE93E00197F1F700C000008D9864
:1008200090EA9A95F1F780B3E7EEF3E03197F1F7AC
:1008300000C0000085FB882780F991E08927819519
:100840000895F89420E030E090E0AC01022E02C060
:10085000559547950A94E2F740FF0BC08D9A4AE1FF
:100860004A95F1F700C08D9842E94A95F1F700C02A
:1008700009C08D9A40EA4A95F1F78D984DE04A9566
:10088000F1F700002F5F3F4F28303105F1F67894E3
:100890000895F89420E030E080E061E070E08D9A07
:1008A0009DE09A95F1F700008D9898E29A95F1F7FE
:1008B000859B08C0AB01022E02C0440F551F0A944D
:1008C000E2F7842B95E89A95F1F700002F5F3F4FF0
:1008D0002830310521F77894089599DF882321F095
:1008E0008CECAFDF84E4ADDF0895CF92DF92EF921E
:1008F000FF928DDF882381F18CECA3DF8EEBA1DFEB
:10090000C8DFC82ED12CE12CF12CC3DF282F30E01A
:10091000322F2227C901AA2797FDA095BA2F9C0143
:10092000AD012C0D3D1D4E1D5F1DA4E6B0E035D977
:100930006B017C0199232CF42FE0C20ED11CE11C29
:10094000F11CD701C601689413F8B595A795979542
:1009500087951694D1F703C080E090E0DC01FF900A
:10096000EF90DF90CF900895362FAC98AD98A49873
:100970006AE06A95F1F700C0A5987AE07A95F1F7F8
:1009800000C0A49A9AE09A95F1F700C0A59A98E061
:1009900090938401E8E0A82FB0E0E150BD0102C0CF
:1009A00075956795EA95E2F760FF02C0A49801C0CB
:1009B000A49A7AE07A95F1F700C0A5989AE09A9502
:1009C000F1F700C0EAE0EA95F1F700C0A59AFAE075
:1009D000FA95F1F700C0E0918401E150E0938401C1
:1009E000E111DBCFA598A4986AE06A95F1F700C001
:1009F000109284019C9905C00AC090918401983C92
:100A0000A0F472E07A95F1F700C09C99F6CF9AE0D5
:100A10009A95F1F700C0A59AAAE0AA95F1F700C04F
:100A2000A49ABAE0BA95F1F700C098E090938401D7
:100A300068E0E32FF0E06150DF0102C0B595A795B3
:100A40006A95E2F7A0FF02C0A49801C0A49ABAE098
:100A5000BA95F1F700C0A5986AE06A95F1F700C071
:100A60007AE07A95F1F700C0A59A9AE09A95F1F7A5
:100A700000C0609184016150609384016111DBCFFB
:100A8000A598A498AAE0AA95F1F700C01092840155
:100A90009C9905C00AC090918401983CA0F4B2E0F2
:100AA000BA95F1F700C09C99F6CFEAE0EA95F1F724
:100AB00000C0A59AFAE0FA95F1F700C0A49A6AE09E
:100AC0006A95F1F700C0AC98AD98A4987AE07A9551
:100AD000F1F700C0A5989AE09A95F1F700C0A49AA2
:100AE000AAE0AA95F1F700C0A59A61E0680F88E036
:100AF0008093840170E08150FB0102C0F595E79579
:100B00008A95E2F7E0FF02C0A49801C0A49AFAE037
:100B1000FA95F1F700C0A5988AE08A95F1F700C030
:100B20009AE09A95F1F700C0A59AAAE0AA95F1F784
:100B300000C0809184018150809384018111DBCFBA
:100B4000A598A498BAE0BA95F1F700C01092840174
:100B50009C9905C00AC080918401883CA0F4E2E021
:100B6000EA95F1F700C09C99F6CFFAE0FA95F1F713
:100B700000C0A59A6AE06A95F1F700C0A49A7AE0ED
:100B80007A95F1F700C010928301622F70E06150F6
:100B90007109161617060CF09AC030E0FA01E30F3F
:100BA000F11DA4981092840190E0A5988AE08A959E
:100BB000F1F700C09C999F5FAAE0AA95F1F700C0E9
:100BC000A59ABAE0BA95F1F700C08AE08A95F1F7E4
:100BD00000C0990F309184013F5F3093840137301A
:100BE00020F3A598AAE0AA95F1F700C09C999F5F11
:100BF000BAE0BA95F1F700C0A59A8AE08A95F1F7B4
:100C000000C0AAE0AA95F1F700C09083A49AA59825
:100C1000BAE0BA95F1F700C0A59AA4983091830183
:100C20003F5F30938301832F90E0861797070CF482
:100C3000B5CF822F90E00197FA01E80FF91FA49831
:100C4000109284014DC0A5986AE06A95F1F700C042
:100C50009C998F5F7AE07A95F1F700C0A59A9AE0A7
:100C60009A95F1F700C0AAE0AA95F1F700C0880FA5
:100C7000909184019F5F90938401973020F3A59811
:100C8000BAE0BA95F1F700C09C998F5F6AE06A9567
:100C9000F1F700C0A59A7AE07A95F1F700C09AE0E2
:100CA0009A95F1F700C08083A498A598AAE0AA9528
:100CB000F1F700C0A59AA49ABAE0BA95F1F700C07E
:100CC000A598EAE0EA95F1F700C0A4980895822F6C
:100CD00090E00197FA01E80FF91FA498109284019F
:100CE00080E0B1CFE82FAC98AD98A4988AE08A95BF
:100CF000F1F700C0A598AAE0AA95F1F700C0A49A60
:100D0000BAE0BA95F1F700C0A59A88E08093840113
:100D1000F0E08150DF0102C0B595A7958A95E2F712
:100D2000A0FF02C0A49801C0A49ABAE0BA95F1F756
:100D300000C0A5988AE08A95F1F700C0AAE0AA95BC
:100D4000F1F700C0A59ABAE0BA95F1F700C080911A
:100D500084018150809384018111DBCFA598A498F0
:100D6000EAE0EA95F1F700C0109284019C9905C071
:100D70000AC080918401883CA0F4F2E0FA95F1F772
:100D800000C09C99F6CF8AE08A95F1F700C0A59A39
:100D9000AAE0AA95F1F700C0A49ABAE0BA95F1F7D3
:100DA00000C088E08093840170E08150FB0102C0A4
:100DB000F595E7958A95E2F7E0FF02C0A49801C097
:100DC000A49AFAE0FA95F1F700C0A5988AE08A950E
:100DD000F1F700C0AAE0AA95F1F700C0A59ABAE021
:100DE000BA95F1F700C0809184018150809384010D
:100DF0008111DBCFA598A498EAE0EA95F1F700C04D
:100E0000109284019C9905C00AC080918401883C9D
:100E1000A0F4F2E0FA95F1F700C09C99F6CF8AE0D1
:100E20008A95F1F700C0A59AAAE0AA95F1F700C04B
:100E3000A49ABAE0BA95F1F700C010928301222378
:100E400009F45AC080E038E0FA01E80FF11D608132
:100E500030938401832F70E08150FB0102C0F5952F
:100E6000E7958A95E2F7E0FF02C0A49801C0A49A32
:100E7000FAE0FA95F1F700C0A5988AE08A95F1F7B3
:100E800000C0AAE0AA95F1F700C0A59ABAE0BA9509
:100E9000F1F700C080918401815080938401811119
:100EA000DBCFA598A498EAE0EA95F1F700C010928C
:100EB00084019C9905C00AC080918401883CA0F4FB
:100EC000F2E0FA95F1F700C09C99F6CF8AE08A9596
:100ED000F1F700C0A59AAAE0AA95F1F700C0A49A7C
:100EE000BAE0BA95F1F700C0809183018F5F8093DB
:100EF0008301821708F4A8CFA49AEAE0EA95F1F7F3
:100F000000C0A598FAE0FA95F1F700C0A4980895FA
:100F10001F920F920FB60F9211248F939F9388B553
:100F200099B5892B79F088B599B5019799BD88BD98
:100F30008FE99FE00197F1F700C0000088B599B5EF
:100F4000892B89F79F918F910F900FBE0F901F9063
:100F500018952FEF31E18AE7215030408040E1F7CA
:100F600000C00000BA9A83E28FBD8AE08EBD19BC32
:100F700018BC88B599B58F3F934080F488B599B572
:100F8000019699BD88BDEFE9FFE03197F1F700C008
:100F9000000088B599B58F3F934080F360E07CE214
:100FA00081E090E09CD310BC88E089B9599A8CE626
:100FB00090E0ABD32FEF31E18AE721503040804001
:100FC000E1F700C0000085E790E09FD39FEFA1E12B
:100FD000BAE79150A040B040E1F700C0000089E9B5
:100FE00090E093D3EFEFF0E722E0E150F0402040B3
:100FF000E1F700C000008FE3E7EAF0E0A7EAB1E024
:1010000001900D928A95E1F72AD801DC882351F0EE
:101010008CEC17DC8EE415DC8FEF13DC8FEF11DC2A
:101020008FE70FDC88B599B5892B79F088B599B52C
:10103000019799BD88BD8FE99FE00197F1F700C046
:10104000000088B599B5892B89F70F2EF8ECAF2EE3
:10105000F1E0BF2EF02D0F2EF7ECCF2EF1E0DF2EBA
:10106000F02D0F2EF5ECEF2EF1E0FF2EF02D04EC1D
:1010700011E0C1EED1E00F2EF0EE8F2EF1E09F2EA9
:10108000F02D0F2EF1EF6F2EF1E07F2EF02D0F2EB1
:10109000FFEE2F2EF1E03F2EF02D0BC088B599B555
:1010A000019699BD88BDAFE9BFE01197F1F700C087
:1010B000000088B599B58F3F934080F30EDCEFEFC9
:1010C000F9E628E1E150F0402040E1F700C00000DF
:1010D0000CDC90936100809360006AE670E08BE620
:1010E00090E05ADB62E670E086E690E0A5D9409198
:1010F00060005091610055232CF05093A60140935D
:10110000A50108C088279927841B950B9093A601F9
:101110008093A501E091A501F091A6019F01ADEC9E
:10112000BCEC2FD59695879596958795969587953E
:101130009C01220F331F880F991F880F991F880F5A
:10114000991F820F931FDF01A81BB90BCD01805D92
:10115000D5018C939F01ADECBCEC13D5FC01F69549
:10116000E795F695E795F695E7959F010AD596954B
:10117000879596958795969587959C01220F331FA5
:10118000880F991F880F991F880F991F820F931F2F
:101190009F01281B390BC901805DD6018C939F01EB
:1011A000ADECBCECEED4FC01F695E795F695E79531
:1011B000F695E7959F01E5D4969587959695879541
:1011C000969587959C01220F331F880F991F880FD2
:1011D000991F880F991F820F931F9F01281B390B9E
:1011E000C901805DD7018C939F01ADECBCECC9D4E3
:1011F000FC01F695E795F695E795F695E7959F013D
:10120000C0D49695879596958795969587959C01D8
:10121000220F331F880F991F880F991F880F991F5E
:10122000820F931FE81BF90BE05DD801EC93552367
:101230000CF049C00F2EFDE25F2EF02D5092C3013D
:10124000E0916B00F0E09F01ADECBCEC9AD4969578
:10125000879596958795969587959C01220F331FC4
:10126000880F991F880F991F880F991F820F931F4E
:101270009F01281B390BC901805D8093D5019F0117
:1012800080D4FC01F695E795F695E795F695E795F8
:101290009F0177D49695879596958795969587958E
:1012A0009C01220F331F880F991F880F991F880FE9
:1012B000991F820F931FE81BF90BE05DE093D401A7
:1012C0005092D3014AC00F2EF0E35F2EF02D5092C2
:1012D000C301E0916B00F0E09F01ADECBCEC51D498
:1012E0009695879596958795969587959C01220F5B
:1012F000331F880F991F880F991F880F991F820F1E
:10130000931FDF01A81BB90BCD01805D8093D50130
:101310009F01ADECBCEC35D4FC01F695E795F69554
:10132000E795F695E7959F012CD496958795969528
:101330008795969587959C01220F331F880F991FDB
:10134000880F991F880F991F820F931FE81BF90BB5
:10135000E05DE093D4015092D301E0916A00F0E0A7
:101360009F01ADECBCEC0DD496958795969587952D
:10137000969587959C01220F331F880F991F880F20
:10138000991F880F991F820F931F9F01281B390BEC
:10139000C901805D88839F01F4D3FC01F695E79530
:1013A000F695E795F695E7959F01EBD3969587958A
:1013B00096958795969587959C01220F331F880FE8
:1013C000991F880F991F880F991F820F931FE81B81
:1013D000F90BE05DD401EC93809166009091670079
:1013E000A0916800B0916900BB232CF09093A601F6
:1013F0008093A50107C09195819591099093A601CD
:101400008093A501E091A501F091A6019F01ADECAB
:10141000BCECB7D3969587959695879596958795C5
:101420009C01220F331F880F991F880F991F880F67
:10143000991F820F931F9F01281B390BC901805DE3
:10144000D3018C939F01ADECBCEC9BD3FC01F695D2
:10145000E795F695E795F695E7959F0192D39695D2
:10146000879596958795969587959C01220F331FB2
:10147000880F991F880F991F880F991F820F931F3C
:101480009F01281B390BC901805DD1018C939F01FD
:10149000ADECBCEC76D3FC01F695E795F695E795B7
:1014A000F695E7959F016DD39695879596958795C7
:1014B000969587959C01220F331F880F991F880FDF
:1014C000991F880F991F820F931FE81BF90BE05D8E
:1014D000AEEEB1E0EC93552324F48DE28093ED0160
:1014E00003C080E38093ED0140916200509163005E
:1014F0009A01ADECBCEC45D396958795969587956A
:10150000969587959C01220F331F880F991F880F8E
:10151000991F880F991F820F931FFA01E81BF90B7F
:10152000CF01805DA1E0B2E08C939A01ADECBCEC00
:1015300028D3AC01569547955695479556954795AE
:101540009A011FD396958795969587959695879539
:101550009C01220F331F880F991F880F991F880F36
:10156000991F820F931FFA01E81BF90BCF01805DD1
:10157000AFEFB1E08C939A01ADECBCEC02D3AC01BF
:101580005695479556954795569547959A01F9D2A0
:101590009695879596958795969587959C01220FA8
:1015A000331F880F991F880F991F880F991F820F6B
:1015B000931FFA01E81BF90BCF01805DAEEFB1E09C
:1015C0008C939A01ADECBCECDCD2AC0156954795FE
:1015D00056954795569547955093A6014093A5017A
:1015E0009A01CFD2969587959695879596958795EA
:1015F0009C01220F331F880F991F880F991F880F96
:10160000991F820F931F481B590B405DEDEFF1E0CE
:10161000408386EE90E079D0FFEF20E732E0F15092
:1016200020403040E1F700C000008DE091E06DD037
:101630008FEF90E7A2E081509040A040E1F700C01A
:10164000000087EA91E061D088B599B5892B79F0DF
:1016500088B599B5019799BD88BDEFE9FFE031974D
:10166000F1F700C0000088B599B5892B89F7FFEF25
:1016700023EB34EC84E0F150204030408040D9F737
:1016800000C000009FEFA3EBB4ECE4E09150A04059
:10169000B040E040D9F700C00000FFEF23EB34EC8E
:1016A00084E0F150204030408040D9F700C0000075
:1016B0009FEFA3EBB4ECE4E09150A040B040E040D9
:1016C000D9F700C00000FFEF23EB34EC84E0F150C9
:1016D000204030408040D9F700C00000EACC9B0198
:1016E000AC01215031094109510960E271EA87E0FA
:1016F00090E009D210BC29B988E98AB98EE880BD8A
:1017000008955D9BFECF8CB90895CF93DF93EC01D4
:101710002196FC018081882321F0F3DF89918111DA
:10172000FCCFDF91CF9108955058BB27AA270ED048
:101730004DC13ED130F043D120F031F49F3F11F440
:101740001EF433C10EF4E095E7FB29C1E92F4FD118
:1017500080F3BA17620773078407950718F071F4CE
:101760009EF567C10EF4E0950B2EBA2FA02D0B014C
:10177000B90190010C01CA01A0011124FF27591BD6
:1017800099F0593F50F4503E68F11A16F040A22FDC
:10179000232F342F4427585FF3CF4695379527954D
:1017A000A795F0405395C9F77EF41F16BA0B620B4C
:1017B000730B840BBAF09150A1F0FF0FBB1F661F93
:1017C000771F881FC2F70EC0BA0F621F731F841FD6
:1017D00048F4879577956795B795F7959E3F08F0FC
:1017E000B3CF9395880F08F09927EE0F97958795BB
:1017F00008950CD0EBC0E3D040F0DAD030F021F403
:101800005F3F19F0CCC0511115C1CFC0F0D098F393
:101810009923C9F35523B1F3951B550BBB27AA2771
:1018200062177307840738F09F5F5F4F220F331FE3
:10183000441FAA1FA9F333D00E2E3AF0E0E830D0AF
:1018400091505040E695001CCAF729D0FE2F27D0B2
:10185000660F771F881FBB1F261737074807AB0780
:10186000B0E809F0BB0B802DBF01FF2793585F4FF5
:101870002AF09E3F510568F092C0DCC05F3FECF358
:10188000983EDCF3869577956795B795F7959F5FBA
:10189000C9F7880F911D9695879597F90895E1E00E
:1018A000660F771F881FBB1F621773078407BA076D
:1018B00020F0621B730B840BBA0BEE1F88F7E095C8
:1018C000089504D06894B111B5C0089598D088F0F7
:1018D0009F5790F0B92F9927B751A0F0D1F0660F1C
:1018E000771F881F991F1AF0BA95C9F712C0B13037
:1018F00081F09FD0B1E008959CC0672F782F882792
:10190000B85F39F0B93FCCF3869577956795B39575
:10191000D9F73EF490958095709561957F4F8F4FE4
:101920009F4F0895E89409C097FB3EF490958095E9
:10193000709561957F4F8F4F9F4F9923A9F0F92F95
:1019400096E9BB279395F695879577956795B79513
:10195000F111F8CFFAF4BB0F11F460FF1BC06F5FF9
:101960007F4F8F4F9F4F16C0882311F096E911C00B
:10197000772321F09EE8872F762F05C0662371F02C
:1019800096E8862F70E060E02AF09A95660F771F40
:10199000881FDAF7880F9695879597F9089597F934
:1019A0009F6780E870E060E008959FEF80EC089505
:1019B00000240A941616170618060906089500242E
:1019C0000A9412161306140605060895092E0394A8
:1019D000000C11F4882352F0BB0F40F4BF2B11F41C
:1019E00060FF04C06F5F7F4F8F4F9F4F089557FD7B
:1019F0009058440F551F59F05F3F71F04795880F7D
:101A000097FB991F61F09F3F79F087950895121613
:101A100013061406551FF2CF4695F1DF08C01616BF
:101A200017061806991FF1CF869571056105089470
:101A30000895E894BB2766277727CB0197F9089587
:101A40000BD0C4CFB5DF28F0BADF18F0952309F02A
:101A5000A6CFABCF1124EECFCADFA0F3959FD1F371
:101A6000950F50E0551F629FF001729FBB27F00D4C
:101A7000B11D639FAA27F00DB11DAA1F649F6627A1
:101A8000B00DA11D661F829F2227B00DA11D621FF0
:101A9000739FB00DA11D621F839FA00D611D221FAA
:101AA000749F3327A00D611D231F849F600D211D8E
:101AB000822F762F6A2F11249F5750408AF0E1F031
:101AC00088234AF0EE0FFF1FBB1F661F771F881F7A
:101AD00091505040A9F79E3F510570F060CFAACFBA
:101AE0005F3FECF3983EDCF3869577956795B79565
:101AF000F795E7959F5FC1F7FE2B880F911D96958F
:101B0000879597F90895A1E21A2EAA1BBB1BFD0128
:101B10000DC0AA1FBB1FEE1FFF1FA217B307E407CC
:101B2000F50720F0A21BB30BE40BF50B661F771F24
:101B3000881F991F1A9469F7609570958095909504
:101B40009B01AC01BD01CF010895052E97FB16F452
:101B500000940FD057FD05D0D6DF07FC02D046F425
:101B600008C050954095309521953F4F4F4F5F4F9E
:101B7000089590958095709561957F4F8F4F9F4FF9
:101B80000895A29FB001B39FC001A39F01D0B29F4F
:101B9000700D811D1124911D0895F3DFA59F900DF7
:101BA000B49F900DA49F800D911D11240895F89469
:021BB000FFCF65
:101BB2001400B01D0000C8000000321441542B5222
:101BC20053540D0A0041542B43574A41503D22447D
:101BD20075626F73536F757468222C226475626F1D
:101BE2007332303138220D0A0041542B4349504D93
:101BF20055583D300D0A002363633A35303A653358
:101C02003A32623A35353A66630A234453313842EE
:101C12003230233030302E30300A234448543131B0
:101C22005F54233030300A2344485431315F482313
:101C320030300A23230041542B434950535441521C
:101C4200543D22544350222C226E61726F646D6F98
:101C52006E2E7275222C383238330D0A0041542B05
:0E1C620043495053454E443D36320D0A0000B2
:00000001FF
